{
  "_format": "hh-sol-artifact-1",
  "contractName": "NFTMarketplace",
  "sourceName": "contracts/NFTMarketplace.sol",
  "abi": [
    {
      "inputs": [],
      "stateMutability": "nonpayable",
      "type": "constructor"
    },
    {
      "anonymous": false,
      "inputs": [
        {
          "indexed": true,
          "internalType": "address",
          "name": "owner",
          "type": "address"
        },
        {
          "indexed": true,
          "internalType": "address",
          "name": "approved",
          "type": "address"
        },
        {
          "indexed": true,
          "internalType": "uint256",
          "name": "tokenId",
          "type": "uint256"
        }
      ],
      "name": "Approval",
      "type": "event"
    },
    {
      "anonymous": false,
      "inputs": [
        {
          "indexed": true,
          "internalType": "address",
          "name": "owner",
          "type": "address"
        },
        {
          "indexed": true,
          "internalType": "address",
          "name": "operator",
          "type": "address"
        },
        {
          "indexed": false,
          "internalType": "bool",
          "name": "approved",
          "type": "bool"
        }
      ],
      "name": "ApprovalForAll",
      "type": "event"
    },
    {
      "anonymous": false,
      "inputs": [
        {
          "indexed": true,
          "internalType": "uint256",
          "name": "tokenId",
          "type": "uint256"
        },
        {
          "indexed": false,
          "internalType": "address",
          "name": "owner",
          "type": "address"
        },
        {
          "indexed": false,
          "internalType": "uint256",
          "name": "price",
          "type": "uint256"
        },
        {
          "indexed": false,
          "internalType": "bool",
          "name": "currentlyListed",
          "type": "bool"
        }
      ],
      "name": "TokenListedSuccess",
      "type": "event"
    },
    {
      "anonymous": false,
      "inputs": [
        {
          "indexed": true,
          "internalType": "address",
          "name": "from",
          "type": "address"
        },
        {
          "indexed": true,
          "internalType": "address",
          "name": "to",
          "type": "address"
        },
        {
          "indexed": true,
          "internalType": "uint256",
          "name": "tokenId",
          "type": "uint256"
        }
      ],
      "name": "Transfer",
      "type": "event"
    },
    {
      "inputs": [
        {
          "internalType": "address",
          "name": "to",
          "type": "address"
        },
        {
          "internalType": "uint256",
          "name": "tokenId",
          "type": "uint256"
        }
      ],
      "name": "approve",
      "outputs": [],
      "stateMutability": "nonpayable",
      "type": "function"
    },
    {
      "inputs": [
        {
          "internalType": "address",
          "name": "owner",
          "type": "address"
        }
      ],
      "name": "balanceOf",
      "outputs": [
        {
          "internalType": "uint256",
          "name": "",
          "type": "uint256"
        }
      ],
      "stateMutability": "view",
      "type": "function"
    },
    {
      "inputs": [
        {
          "internalType": "string",
          "name": "tokenURI",
          "type": "string"
        },
        {
          "internalType": "uint256",
          "name": "price",
          "type": "uint256"
        }
      ],
      "name": "createToken",
      "outputs": [
        {
          "internalType": "uint256",
          "name": "",
          "type": "uint256"
        }
      ],
      "stateMutability": "payable",
      "type": "function"
    },
    {
      "inputs": [
        {
          "internalType": "uint256",
          "name": "tokenId",
          "type": "uint256"
        }
      ],
      "name": "executeSale",
      "outputs": [],
      "stateMutability": "payable",
      "type": "function"
    },
    {
      "inputs": [],
      "name": "getAllNFTs",
      "outputs": [
        {
          "components": [
            {
              "internalType": "uint256",
              "name": "tokenId",
              "type": "uint256"
            },
            {
              "internalType": "address",
              "name": "owner",
              "type": "address"
            },
            {
              "internalType": "uint256",
              "name": "price",
              "type": "uint256"
            },
            {
              "internalType": "bool",
              "name": "currentlyListed",
              "type": "bool"
            }
          ],
          "internalType": "struct NFTMarketplace.ListedToken[]",
          "name": "",
          "type": "tuple[]"
        }
      ],
      "stateMutability": "view",
      "type": "function"
    },
    {
      "inputs": [
        {
          "internalType": "uint256",
          "name": "tokenId",
          "type": "uint256"
        }
      ],
      "name": "getApproved",
      "outputs": [
        {
          "internalType": "address",
          "name": "",
          "type": "address"
        }
      ],
      "stateMutability": "view",
      "type": "function"
    },
    {
      "inputs": [],
      "name": "getCurrentTokenId",
      "outputs": [
        {
          "internalType": "uint256",
          "name": "",
          "type": "uint256"
        }
      ],
      "stateMutability": "view",
      "type": "function"
    },
    {
      "inputs": [],
      "name": "getLatestIdToListedToken",
      "outputs": [
        {
          "components": [
            {
              "internalType": "uint256",
              "name": "tokenId",
              "type": "uint256"
            },
            {
              "internalType": "address",
              "name": "owner",
              "type": "address"
            },
            {
              "internalType": "uint256",
              "name": "price",
              "type": "uint256"
            },
            {
              "internalType": "bool",
              "name": "currentlyListed",
              "type": "bool"
            }
          ],
          "internalType": "struct NFTMarketplace.ListedToken",
          "name": "",
          "type": "tuple"
        }
      ],
      "stateMutability": "view",
      "type": "function"
    },
    {
      "inputs": [],
      "name": "getListPrice",
      "outputs": [
        {
          "internalType": "uint256",
          "name": "",
          "type": "uint256"
        }
      ],
      "stateMutability": "view",
      "type": "function"
    },
    {
      "inputs": [
        {
          "internalType": "uint256",
          "name": "tokenId",
          "type": "uint256"
        }
      ],
      "name": "getListedTokenForId",
      "outputs": [
        {
          "components": [
            {
              "internalType": "uint256",
              "name": "tokenId",
              "type": "uint256"
            },
            {
              "internalType": "address",
              "name": "owner",
              "type": "address"
            },
            {
              "internalType": "uint256",
              "name": "price",
              "type": "uint256"
            },
            {
              "internalType": "bool",
              "name": "currentlyListed",
              "type": "bool"
            }
          ],
          "internalType": "struct NFTMarketplace.ListedToken",
          "name": "",
          "type": "tuple"
        }
      ],
      "stateMutability": "view",
      "type": "function"
    },
    {
      "inputs": [],
      "name": "getMyNFTs",
      "outputs": [
        {
          "components": [
            {
              "internalType": "uint256",
              "name": "tokenId",
              "type": "uint256"
            },
            {
              "internalType": "address",
              "name": "owner",
              "type": "address"
            },
            {
              "internalType": "uint256",
              "name": "price",
              "type": "uint256"
            },
            {
              "internalType": "bool",
              "name": "currentlyListed",
              "type": "bool"
            }
          ],
          "internalType": "struct NFTMarketplace.ListedToken[]",
          "name": "",
          "type": "tuple[]"
        }
      ],
      "stateMutability": "view",
      "type": "function"
    },
    {
      "inputs": [
        {
          "internalType": "address",
          "name": "_owner",
          "type": "address"
        }
      ],
      "name": "getNFTs",
      "outputs": [
        {
          "components": [
            {
              "internalType": "uint256",
              "name": "tokenId",
              "type": "uint256"
            },
            {
              "internalType": "address",
              "name": "owner",
              "type": "address"
            },
            {
              "internalType": "uint256",
              "name": "price",
              "type": "uint256"
            },
            {
              "internalType": "bool",
              "name": "currentlyListed",
              "type": "bool"
            }
          ],
          "internalType": "struct NFTMarketplace.ListedToken[]",
          "name": "",
          "type": "tuple[]"
        }
      ],
      "stateMutability": "view",
      "type": "function"
    },
    {
      "inputs": [
        {
          "internalType": "address",
          "name": "owner",
          "type": "address"
        },
        {
          "internalType": "address",
          "name": "operator",
          "type": "address"
        }
      ],
      "name": "isApprovedForAll",
      "outputs": [
        {
          "internalType": "bool",
          "name": "",
          "type": "bool"
        }
      ],
      "stateMutability": "view",
      "type": "function"
    },
    {
      "inputs": [
        {
          "internalType": "uint256",
          "name": "tokenId",
          "type": "uint256"
        }
      ],
      "name": "listExistingNFT",
      "outputs": [],
      "stateMutability": "nonpayable",
      "type": "function"
    },
    {
      "inputs": [],
      "name": "listPrice",
      "outputs": [
        {
          "internalType": "uint256",
          "name": "",
          "type": "uint256"
        }
      ],
      "stateMutability": "view",
      "type": "function"
    },
    {
      "inputs": [],
      "name": "name",
      "outputs": [
        {
          "internalType": "string",
          "name": "",
          "type": "string"
        }
      ],
      "stateMutability": "view",
      "type": "function"
    },
    {
      "inputs": [
        {
          "internalType": "uint256",
          "name": "tokenId",
          "type": "uint256"
        }
      ],
      "name": "ownerOf",
      "outputs": [
        {
          "internalType": "address",
          "name": "",
          "type": "address"
        }
      ],
      "stateMutability": "view",
      "type": "function"
    },
    {
      "inputs": [],
      "name": "royaltyFee",
      "outputs": [
        {
          "internalType": "uint96",
          "name": "",
          "type": "uint96"
        }
      ],
      "stateMutability": "view",
      "type": "function"
    },
    {
      "inputs": [
        {
          "internalType": "uint256",
          "name": "_tokenId",
          "type": "uint256"
        },
        {
          "internalType": "uint256",
          "name": "_salePrice",
          "type": "uint256"
        }
      ],
      "name": "royaltyInfo",
      "outputs": [
        {
          "internalType": "address",
          "name": "",
          "type": "address"
        },
        {
          "internalType": "uint256",
          "name": "",
          "type": "uint256"
        }
      ],
      "stateMutability": "view",
      "type": "function"
    },
    {
      "inputs": [
        {
          "internalType": "address",
          "name": "from",
          "type": "address"
        },
        {
          "internalType": "address",
          "name": "to",
          "type": "address"
        },
        {
          "internalType": "uint256",
          "name": "tokenId",
          "type": "uint256"
        }
      ],
      "name": "safeTransferFrom",
      "outputs": [],
      "stateMutability": "nonpayable",
      "type": "function"
    },
    {
      "inputs": [
        {
          "internalType": "address",
          "name": "from",
          "type": "address"
        },
        {
          "internalType": "address",
          "name": "to",
          "type": "address"
        },
        {
          "internalType": "uint256",
          "name": "tokenId",
          "type": "uint256"
        },
        {
          "internalType": "bytes",
          "name": "data",
          "type": "bytes"
        }
      ],
      "name": "safeTransferFrom",
      "outputs": [],
      "stateMutability": "nonpayable",
      "type": "function"
    },
    {
      "inputs": [
        {
          "internalType": "address",
          "name": "operator",
          "type": "address"
        },
        {
          "internalType": "bool",
          "name": "approved",
          "type": "bool"
        }
      ],
      "name": "setApprovalForAll",
      "outputs": [],
      "stateMutability": "nonpayable",
      "type": "function"
    },
    {
      "inputs": [
        {
          "internalType": "bytes4",
          "name": "interfaceId",
          "type": "bytes4"
        }
      ],
      "name": "supportsInterface",
      "outputs": [
        {
          "internalType": "bool",
          "name": "",
          "type": "bool"
        }
      ],
      "stateMutability": "view",
      "type": "function"
    },
    {
      "inputs": [],
      "name": "symbol",
      "outputs": [
        {
          "internalType": "string",
          "name": "",
          "type": "string"
        }
      ],
      "stateMutability": "view",
      "type": "function"
    },
    {
      "inputs": [
        {
          "internalType": "uint256",
          "name": "tokenId",
          "type": "uint256"
        }
      ],
      "name": "tokenURI",
      "outputs": [
        {
          "internalType": "string",
          "name": "",
          "type": "string"
        }
      ],
      "stateMutability": "view",
      "type": "function"
    },
    {
      "inputs": [
        {
          "internalType": "address",
          "name": "from",
          "type": "address"
        },
        {
          "internalType": "address",
          "name": "to",
          "type": "address"
        },
        {
          "internalType": "uint256",
          "name": "tokenId",
          "type": "uint256"
        }
      ],
      "name": "transferFrom",
      "outputs": [],
      "stateMutability": "nonpayable",
      "type": "function"
    },
    {
      "inputs": [
        {
          "internalType": "uint256",
          "name": "tokenId",
          "type": "uint256"
        }
      ],
      "name": "unlistExistingNFT",
      "outputs": [],
      "stateMutability": "nonpayable",
      "type": "function"
    },
    {
      "inputs": [
        {
          "internalType": "uint256",
          "name": "_listPrice",
          "type": "uint256"
        }
      ],
      "name": "updateListPrice",
      "outputs": [],
      "stateMutability": "payable",
      "type": "function"
    }
  ],
  "bytecode": "0x60806040526509184e72a000600c55600d80546001600160601b0319166103e81790553480156200002f57600080fd5b50604080518082018252600e81526d4e46544d61726b6574706c61636560901b6020808301918252835180850190945260048452634e46544d60e01b9084015281519192916200008291600091620001c8565b50805162000098906001906020840190620001c8565b5050600b80546001600160a01b03191633908117909155620000bd91506064620000c3565b620002ab565b6127106001600160601b0382161115620001375760405162461bcd60e51b815260206004820152602a60248201527f455243323938313a20726f79616c7479206665652077696c6c206578636565646044820152692073616c65507269636560b01b60648201526084015b60405180910390fd5b6001600160a01b0382166200018f5760405162461bcd60e51b815260206004820152601960248201527f455243323938313a20696e76616c69642072656365697665720000000000000060448201526064016200012e565b604080518082019091526001600160a01b039092168083526001600160601b039091166020909201829052600160a01b90910217600755565b828054620001d6906200026e565b90600052602060002090601f016020900481019282620001fa576000855562000245565b82601f106200021557805160ff191683800117855562000245565b8280016001018555821562000245579182015b828111156200024557825182559160200191906001019062000228565b506200025392915062000257565b5090565b5b8082111562000253576000815560010162000258565b600181811c908216806200028357607f821691505b60208210811415620002a557634e487b7160e01b600052602260045260246000fd5b50919050565b6126da80620002bb6000396000f3fe6080604052600436106101b75760003560e01c806375d83ba6116100ec578063b88d4fde1161008a578063c87b56dd11610064578063c87b56dd146104ef578063d1a88ae51461050f578063e0391b0914610524578063e985e9c51461053957600080fd5b8063b88d4fde14610484578063b8997a97146104a4578063c322579c146104dc57600080fd5b80638e264590116100c65780638e2645901461040f57806395d89b411461043c5780639b1225c414610451578063a22cb4651461046457600080fd5b806375d83ba6146103af57806376e1e29c146103cf57806382183fb0146103ef57600080fd5b8063561892361161015957806368f1945f1161013357806368f1945f146103515780636eb588d91461036657806370a082311461037c57806372b3b6201461039c57600080fd5b806356189236146102ec578063629cb2e41461030f5780636352211e1461033157600080fd5b8063095ea7b311610195578063095ea7b31461024b57806323b872dd1461026d5780632a55205a1461028d57806342842e0e146102cc57600080fd5b806301ffc9a7146101bc57806306fdde03146101f1578063081812fc14610213575b600080fd5b3480156101c857600080fd5b506101dc6101d736600461224b565b610582565b60405190151581526020015b60405180910390f35b3480156101fd57600080fd5b50610206610593565b6040516101e89190612421565b34801561021f57600080fd5b5061023361022e3660046122d9565b610625565b6040516001600160a01b0390911681526020016101e8565b34801561025757600080fd5b5061026b610266366004612222565b61064c565b005b34801561027957600080fd5b5061026b610288366004612134565b610767565b34801561029957600080fd5b506102ad6102a83660046122f1565b610798565b604080516001600160a01b0390931683526020830191909152016101e8565b3480156102d857600080fd5b5061026b6102e7366004612134565b610844565b3480156102f857600080fd5b5061030161085f565b6040519081526020016101e8565b34801561031b57600080fd5b5061032461086f565b6040516101e891906123aa565b34801561033d57600080fd5b5061023361034c3660046122d9565b61087a565b34801561035d57600080fd5b50600c54610301565b34801561037257600080fd5b50610301600c5481565b34801561038857600080fd5b506103016103973660046120e8565b6108da565b6103016103aa366004612283565b610960565b3480156103bb57600080fd5b5061026b6103ca3660046122d9565b6109bb565b3480156103db57600080fd5b5061026b6103ea3660046122d9565b610a0b565b3480156103fb57600080fd5b5061032461040a3660046120e8565b610a58565b34801561041b57600080fd5b5061042f61042a3660046122d9565b610c5a565b6040516101e8919061251e565b34801561044857600080fd5b50610206610cb5565b61026b61045f3660046122d9565b610cc4565b34801561047057600080fd5b5061026b61047f3660046121e8565b6110e5565b34801561049057600080fd5b5061026b61049f36600461216f565b6110f4565b3480156104b057600080fd5b50600d546104c4906001600160601b031681565b6040516001600160601b0390911681526020016101e8565b61026b6104ea3660046122d9565b61112c565b3480156104fb57600080fd5b5061020661050a3660046122d9565b6111a1565b34801561051b57600080fd5b5061042f6112b2565b34801561053057600080fd5b506103246112c5565b34801561054557600080fd5b506101dc610554366004612102565b6001600160a01b03918216600090815260056020908152604080832093909416825291909152205460ff1690565b600061058d826113f2565b92915050565b6060600080546105a2906125e2565b80601f01602080910402602001604051908101604052809291908181526020018280546105ce906125e2565b801561061b5780601f106105f05761010080835404028352916020019161061b565b820191906000526020600020905b8154815290600101906020018083116105fe57829003601f168201915b5050505050905090565b600061063082611417565b506000908152600460205260409020546001600160a01b031690565b60006106578261087a565b9050806001600160a01b0316836001600160a01b031614156106ca5760405162461bcd60e51b815260206004820152602160248201527f4552433732313a20617070726f76616c20746f2063757272656e74206f776e656044820152603960f91b60648201526084015b60405180910390fd5b336001600160a01b03821614806106e657506106e68133610554565b6107585760405162461bcd60e51b815260206004820152603e60248201527f4552433732313a20617070726f76652063616c6c6572206973206e6f7420746f60448201527f6b656e206f776e6572206e6f7220617070726f76656420666f7220616c6c000060648201526084016106c1565b6107628383611479565b505050565b61077133826114e7565b61078d5760405162461bcd60e51b81526004016106c1906124d0565b610762838383611565565b60008281526008602090815260408083208151808301909252546001600160a01b038116808352600160a01b9091046001600160601b031692820192909252829161080d5750604080518082019091526007546001600160a01b0381168252600160a01b90046001600160601b031660208201525b60208101516000906127109061082c906001600160601b031687612580565b610836919061256c565b915196919550909350505050565b610762838383604051806020016040528060008152506110f4565b600061086a60095490565b905090565b606061086a33610a58565b6000818152600260205260408120546001600160a01b03168061058d5760405162461bcd60e51b8152602060048201526018602482015277115490cdcc8c4e881a5b9d985b1a59081d1bdad95b88125160421b60448201526064016106c1565b60006001600160a01b0382166109445760405162461bcd60e51b815260206004820152602960248201527f4552433732313a2061646472657373207a65726f206973206e6f7420612076616044820152683634b21037bbb732b960b91b60648201526084016106c1565b506001600160a01b031660009081526003602052604090205490565b6000610970600980546001019055565b600061097b60095490565b90506109873382611701565b610991818561171b565b61099b81846117b5565b600d546109b490829033906001600160601b031661191b565b9392505050565b80336109c68261087a565b6001600160a01b0316146109ec5760405162461bcd60e51b81526004016106c190612486565b506000908152600e60205260409020600301805460ff19166001179055565b8033610a168261087a565b6001600160a01b031614610a3c5760405162461bcd60e51b81526004016106c190612486565b506000908152600e60205260409020600301805460ff19169055565b60606000610a6560095490565b60408051600080825260208201909252919250908190819081610a9e565b610a8b611f8a565b815260200190600190039081610a835790505b5090506001600160a01b03861615610c515760015b848111610b34576000818152600e602090815260409182902082516080810184528154815260018201546001600160a01b0390811693820184905260028301549482019490945260039091015460ff16151560608201529189161415610b215784610b1d8161261d565b9550505b5080610b2c8161261d565b915050610ab3565b508215610c51578267ffffffffffffffff811115610b6257634e487b7160e01b600052604160045260246000fd5b604051908082528060200260200182016040528015610b9b57816020015b610b88611f8a565b815260200190600190039081610b805790505b50905060015b848111610c4f576000818152600e602090815260409182902082516080810184528154815260018201546001600160a01b0390811693820184905260028301549482019490945260039091015460ff16151560608201529189161415610c3c5780838581518110610c2257634e487b7160e01b600052603260045260246000fd5b60200260200101819052508380610c389061261d565b9450505b5080610c478161261d565b915050610ba1565b505b95945050505050565b610c62611f8a565b506000908152600e602090815260409182902082516080810184528154815260018201546001600160a01b03169281019290925260028101549282019290925260039091015460ff161515606082015290565b6060600180546105a2906125e2565b60003411610d085760405162461bcd60e51b8152602060048201526011602482015270596f752063616e7420706179207a65726f60781b60448201526064016106c1565b6000818152600e60209081526040918290208251608081018452815481526001808301546001600160a01b0316938201939093526002820154938101939093526003015460ff1615156060830181905214610db75760405162461bcd60e51b815260206004820152602960248201527f546f6b656e206d757374206265206c697374656420666f7220657865637574696044820152686e672073616c65732160b81b60648201526084016106c1565b600080610dc8848460400151610798565b91509150600c54818460400151610ddf9190612554565b610de99190612554565b3414610e455760405162461bcd60e51b815260206004820152602560248201527f4e6f7420656e6f7567682066756e6473207061696420746f20657865637574656044820152642073616c6560d81b60648201526084016106c1565b6000826001600160a01b03168260405160006040518083038185875af1925050503d8060008114610e92576040519150601f19603f3d011682016040523d82523d6000602084013e610e97565b606091505b5050905080610eff5760405162461bcd60e51b815260206004820152602e60248201527f5472616e73616374696f6e20746f2074686520726f79616c747920726563656960448201526d1d995c881a185cc819985a5b195960921b60648201526084016106c1565b600b54600c546040516000926001600160a01b031691908381818185875af1925050503d8060008114610f4e576040519150601f19603f3d011682016040523d82523d6000602084013e610f53565b606091505b5050905080610fbb5760405162461bcd60e51b815260206004820152602e60248201527f5472616e73616374696f6e20746f2074686520636f6e7472616374206372656160448201526d1d1bdc881a185cc819985a5b195960921b60648201526084016106c1565b600085602001516001600160a01b031684600c5434610fda919061259f565b610fe4919061259f565b604051600081818185875af1925050503d8060008114611020576040519150601f19603f3d011682016040523d82523d6000602084013e611025565b606091505b50509050806110885760405162461bcd60e51b815260206004820152602960248201527f5472616e73616374696f6e20746f2074686520746f6b656e206f776e65722068604482015268185cc819985a5b195960ba1b60648201526084016106c1565b61109786602001513389611565565b6110a1308861064c565b6000878152600e602052604090206001810180546001600160a01b03191633179055600301805460ff191690556110dc600a80546001019055565b50505050505050565b6110f0338383611a29565b5050565b6110fe33836114e7565b61111a5760405162461bcd60e51b81526004016106c1906124d0565b61112684848484611af8565b50505050565b600b546001600160a01b0316331461119c5760405162461bcd60e51b815260206004820152602d60248201527f4f6e6c7920636f6e7472616374206f776e65722063616e20696e766f6b65207460448201526c3434b99037b832b930ba34b7b760991b60648201526084016106c1565b600c55565b60606111ac82611417565b600082815260066020526040812080546111c5906125e2565b80601f01602080910402602001604051908101604052809291908181526020018280546111f1906125e2565b801561123e5780601f106112135761010080835404028352916020019161123e565b820191906000526020600020905b81548152906001019060200180831161122157829003601f168201915b50505050509050600061125c60408051602081019091526000815290565b905080516000141561126f575092915050565b8151156112a157808260405160200161128992919061233e565b60405160208183030381529060405292505050919050565b6112aa84611b2b565b949350505050565b6112ba611f8a565b61086a61042a61085f565b606060006112d260095490565b90506000808267ffffffffffffffff8111156112fe57634e487b7160e01b600052604160045260246000fd5b60405190808252806020026020018201604052801561133757816020015b611324611f8a565b81526020019060019003908161131c5790505b50905082156109b45760015b8381116113ea576000818152600e602090815260409182902082516080810184528154815260018201546001600160a01b03169281019290925260028101549282019290925260039091015460ff1615156060820152825181908490869081106113bd57634e487b7160e01b600052603260045260246000fd5b602002602001018190525083806113d39061261d565b9450505080806113e29061261d565b915050611343565b509392505050565b60006001600160e01b0319821663152a902d60e11b148061058d575061058d82611b9e565b6000818152600260205260409020546001600160a01b03166114765760405162461bcd60e51b8152602060048201526018602482015277115490cdcc8c4e881a5b9d985b1a59081d1bdad95b88125160421b60448201526064016106c1565b50565b600081815260046020526040902080546001600160a01b0319166001600160a01b03841690811790915581906114ae8261087a565b6001600160a01b03167f8c5be1e5ebec7d5bd14f71427d1e84f3dd0314c0f7b2291e5b200ac8c7c3b92560405160405180910390a45050565b6000806114f38361087a565b9050806001600160a01b0316846001600160a01b0316148061153a57506001600160a01b0380821660009081526005602090815260408083209388168352929052205460ff165b806112aa5750836001600160a01b031661155384610625565b6001600160a01b031614949350505050565b826001600160a01b03166115788261087a565b6001600160a01b0316146115dc5760405162461bcd60e51b815260206004820152602560248201527f4552433732313a207472616e736665722066726f6d20696e636f72726563742060448201526437bbb732b960d91b60648201526084016106c1565b6001600160a01b03821661163e5760405162461bcd60e51b8152602060048201526024808201527f4552433732313a207472616e7366657220746f20746865207a65726f206164646044820152637265737360e01b60648201526084016106c1565b611649600082611479565b6001600160a01b038316600090815260036020526040812080546001929061167290849061259f565b90915550506001600160a01b03821660009081526003602052604081208054600192906116a0908490612554565b909155505060008181526002602052604080822080546001600160a01b0319166001600160a01b0386811691821790925591518493918716917fddf252ad1be2c89b69c2b068fc378daa952ba7f163c4a11628f55a4df523b3ef91a4505050565b6110f0828260405180602001604052806000815250611bee565b6000828152600260205260409020546001600160a01b03166117965760405162461bcd60e51b815260206004820152602e60248201527f45524337323155524953746f726167653a2055524920736574206f66206e6f6e60448201526d32bc34b9ba32b73a103a37b5b2b760911b60648201526084016106c1565b6000828152600660209081526040909120825161076292840190611fbd565b600c5434146118125760405162461bcd60e51b8152602060048201526024808201527f4e6f7420656e6f7567682066756e64732070617373656420666f72206c697374604482015263696e672160e01b60648201526084016106c1565b600081116118625760405162461bcd60e51b815260206004820152601960248201527f5072696365206973207a65726f206f72206e656761746976650000000000000060448201526064016106c1565b604080516080810182528381523360208083018281528385018681526001606080870182815260008b8152600e875289902097518855935187830180546001600160a01b0319166001600160a01b039092169190911790559151600287015591516003909501805460ff19169515159590951790945584519283529082018590529281019290925283917f0241486c3bd7b9341e96a4316b4e175972d913d43d4028b8cfcfe7bc93c96485910160405180910390a25050565b6127106001600160601b03821611156119895760405162461bcd60e51b815260206004820152602a60248201527f455243323938313a20726f79616c7479206665652077696c6c206578636565646044820152692073616c65507269636560b01b60648201526084016106c1565b6001600160a01b0382166119df5760405162461bcd60e51b815260206004820152601b60248201527f455243323938313a20496e76616c696420706172616d6574657273000000000060448201526064016106c1565b6040805180820182526001600160a01b0393841681526001600160601b0392831660208083019182526000968752600890529190942093519051909116600160a01b029116179055565b816001600160a01b0316836001600160a01b03161415611a8b5760405162461bcd60e51b815260206004820152601960248201527f4552433732313a20617070726f766520746f2063616c6c65720000000000000060448201526064016106c1565b6001600160a01b03838116600081815260056020908152604080832094871680845294825291829020805460ff191686151590811790915591519182527f17307eab39ab6107e8899845ad3d59bd9653f200f220920489ca2b5937696c31910160405180910390a3505050565b611b03848484611565565b611b0f84848484611c21565b6111265760405162461bcd60e51b81526004016106c190612434565b6060611b3682611417565b6000611b4d60408051602081019091526000815290565b90506000815111611b6d57604051806020016040528060008152506109b4565b80611b7784611d2e565b604051602001611b8892919061233e565b6040516020818303038152906040529392505050565b60006001600160e01b031982166380ac58cd60e01b1480611bcf57506001600160e01b03198216635b5e139f60e01b145b8061058d57506301ffc9a760e01b6001600160e01b031983161461058d565b611bf88383611e48565b611c056000848484611c21565b6107625760405162461bcd60e51b81526004016106c190612434565b60006001600160a01b0384163b15611d2357604051630a85bd0160e11b81526001600160a01b0385169063150b7a0290611c6590339089908890889060040161236d565b602060405180830381600087803b158015611c7f57600080fd5b505af1925050508015611caf575060408051601f3d908101601f19168201909252611cac91810190612267565b60015b611d09573d808015611cdd576040519150601f19603f3d011682016040523d82523d6000602084013e611ce2565b606091505b508051611d015760405162461bcd60e51b81526004016106c190612434565b805181602001fd5b6001600160e01b031916630a85bd0160e11b1490506112aa565b506001949350505050565b606081611d525750506040805180820190915260018152600360fc1b602082015290565b8160005b8115611d7c5780611d668161261d565b9150611d759050600a8361256c565b9150611d56565b60008167ffffffffffffffff811115611da557634e487b7160e01b600052604160045260246000fd5b6040519080825280601f01601f191660200182016040528015611dcf576020820181803683370190505b5090505b84156112aa57611de460018361259f565b9150611df1600a86612638565b611dfc906030612554565b60f81b818381518110611e1f57634e487b7160e01b600052603260045260246000fd5b60200101906001600160f81b031916908160001a905350611e41600a8661256c565b9450611dd3565b6001600160a01b038216611e9e5760405162461bcd60e51b815260206004820181905260248201527f4552433732313a206d696e7420746f20746865207a65726f206164647265737360448201526064016106c1565b6000818152600260205260409020546001600160a01b031615611f035760405162461bcd60e51b815260206004820152601c60248201527f4552433732313a20746f6b656e20616c7265616479206d696e7465640000000060448201526064016106c1565b6001600160a01b0382166000908152600360205260408120805460019290611f2c908490612554565b909155505060008181526002602052604080822080546001600160a01b0319166001600160a01b03861690811790915590518392907fddf252ad1be2c89b69c2b068fc378daa952ba7f163c4a11628f55a4df523b3ef908290a45050565b60405180608001604052806000815260200160006001600160a01b03168152602001600081526020016000151581525090565b828054611fc9906125e2565b90600052602060002090601f016020900481019282611feb5760008555612031565b82601f1061200457805160ff1916838001178555612031565b82800160010185558215612031579182015b82811115612031578251825591602001919060010190612016565b5061203d929150612041565b5090565b5b8082111561203d5760008155600101612042565b600067ffffffffffffffff8084111561207157612071612678565b604051601f8501601f19908116603f0116810190828211818310171561209957612099612678565b816040528093508581528686860111156120b257600080fd5b858560208301376000602087830101525050509392505050565b80356001600160a01b03811681146120e357600080fd5b919050565b6000602082840312156120f9578081fd5b6109b4826120cc565b60008060408385031215612114578081fd5b61211d836120cc565b915061212b602084016120cc565b90509250929050565b600080600060608486031215612148578081fd5b612151846120cc565b925061215f602085016120cc565b9150604084013590509250925092565b60008060008060808587031215612184578081fd5b61218d856120cc565b935061219b602086016120cc565b925060408501359150606085013567ffffffffffffffff8111156121bd578182fd5b8501601f810187136121cd578182fd5b6121dc87823560208401612056565b91505092959194509250565b600080604083850312156121fa578182fd5b612203836120cc565b915060208301358015158114612217578182fd5b809150509250929050565b60008060408385031215612234578182fd5b61223d836120cc565b946020939093013593505050565b60006020828403121561225c578081fd5b81356109b48161268e565b600060208284031215612278578081fd5b81516109b48161268e565b60008060408385031215612295578182fd5b823567ffffffffffffffff8111156122ab578283fd5b8301601f810185136122bb578283fd5b6122ca85823560208401612056565b95602094909401359450505050565b6000602082840312156122ea578081fd5b5035919050565b60008060408385031215612303578182fd5b50508035926020909101359150565b6000815180845261232a8160208601602086016125b6565b601f01601f19169290920160200192915050565b600083516123508184602088016125b6565b8351908301906123648183602088016125b6565b01949350505050565b6001600160a01b03858116825284166020820152604081018390526080606082018190526000906123a090830184612312565b9695505050505050565b6020808252825182820181905260009190848201906040850190845b8181101561241557612402838551805182526020808201516001600160a01b031690830152604080820151908301526060908101511515910152565b92840192608092909201916001016123c6565b50909695505050505050565b6020815260006109b46020830184612312565b60208082526032908201527f4552433732313a207472616e7366657220746f206e6f6e20455243373231526560408201527131b2b4bb32b91034b6b83632b6b2b73a32b960711b606082015260800190565b6020808252602a908201527f4f6e6c7920746f6b656e206f776e65722063616e20696e766f6b6520746869736040820152691037b832b930ba34b7b760b11b606082015260800190565b6020808252602e908201527f4552433732313a2063616c6c6572206973206e6f7420746f6b656e206f776e6560408201526d1c881b9bdc88185c1c1c9bdd995960921b606082015260800190565b815181526020808301516001600160a01b031690820152604080830151908201526060808301511515908201526080810161058d565b600082198211156125675761256761264c565b500190565b60008261257b5761257b612662565b500490565b600081600019048311821515161561259a5761259a61264c565b500290565b6000828210156125b1576125b161264c565b500390565b60005b838110156125d15781810151838201526020016125b9565b838111156111265750506000910152565b600181811c908216806125f657607f821691505b6020821081141561261757634e487b7160e01b600052602260045260246000fd5b50919050565b60006000198214156126315761263161264c565b5060010190565b60008261264757612647612662565b500690565b634e487b7160e01b600052601160045260246000fd5b634e487b7160e01b600052601260045260246000fd5b634e487b7160e01b600052604160045260246000fd5b6001600160e01b03198116811461147657600080fdfea2646970667358221220a91c39d3b3fc682d3176f1f6776a6b1d90291480429c71549f0b04345551511e64736f6c63430008040033",
  "linkReferences": {},
  "deployedLinkReferences": {}
}